:100000000C945D000C9485000C9485000C94850084
:100010000C9485000C9485000C9485000C9485004C
:100020000C9485000C9485000C9485000C9485003C
:100030000C9485000C9485000C9485000C9485002C
:100040000C94FB0A0C9485000C946B0B0C94450BE0
:100050000C9485000C9485000C9485000C9485000C
:100060000C9485000C94850000000008000201003B
:100070000003040700000000000000000000000072
:10008000250028002B0000000000240027002A0083
:10009000040404040404040402020202020203032E
:1000A0000303030301020408102040800102040836
:1000B00010200102040810202F0C11241FBECFEFC6
:1000C000D8E0DEBFCDBF22E0AAE5B1E001C01D92BD
:1000D000A130B207E1F711E0A0E0B1E0E2EDF8E114
:1000E00002C005900D92AA35B107D9F710E0CDE511
:1000F000D0E004C02197FE010E945C0CCC35D107F2
:10010000C9F70E949D0B0C94670C0C94000090E0C2
:10011000FC01EC55FF4F249180579F4FFC018491C7
:10012000882399F090E0880F991FFC01EA57FF4F50
:10013000A591B491FC01E458FF4F859194918FB73C
:10014000F894EC91E22BEC938FBF08958CBD9DBD8C
:10015000089590E0FC01E859FF4F2491FC01EC5513
:10016000FF4F3491FC01E057FF4FE491EE23C9F0BB
:10017000222339F0233001F1A8F4213019F1223083
:1001800029F1F0E0EE0FFF1FE458FF4FA591B49165
:100190008FB7F894EC91611126C030953E233C93C3
:1001A0008FBF08952730A9F02830C9F0243049F7CF
:1001B000809180008F7D03C0809180008F77809335
:1001C0008000DFCF84B58F7784BDDBCF84B58F7D92
:1001D000FBCF8091B0008F778093B000D2CF809119
:1001E000B0008F7DF9CF3E2BDACF3FB7F8948091E6
:1001F000600190916101A0916201B091630126B507
:10020000A89B05C02F3F19F00196A11DB11D3FBF4E
:10021000BA2FA92F982F8827BC01CD01620F711D1D
:10022000811D911D42E0660F771F881F991F4A9517
:10023000D1F708958F929F92AF92BF92CF92DF92A3
:10024000EF92FF920E94F5004B015C018AE0C82EFC
:10025000D12CE12CF12C0E94F500681979098A094A
:100260009B09683E734081059105A8F321E0C21AFD
:10027000D108E108F10888EE880E83E0981EA11CE1
:10028000B11CC114D104E104F10429F7FF90EF90EF
:10029000DF90CF90BF90AF909F908F900895AF92D6
:1002A000BF92CF92DF92EF92FF920F931F93CF9363
:1002B000DF936C017B018B01040F151FEB015E01C5
:1002C000AE18BF08C017D10759F06991D601ED915A
:1002D000FC910190F081E02DC6010995892B79F7F9
:1002E000C501DF91CF911F910F91FF90EF90DF90AB
:1002F000CF90BF90AF900895FC01538D448D252F72
:1003000030E0842F90E0821B930B541710F0CF96AF
:10031000089501970895FC01918D828D981761F0E1
:10032000A28DAE0FBF2FB11D5D968C91928D9F5FF8
:100330009F73928F90E008958FEF9FEF0895FC01D7
:10034000918D828D981731F0828DE80FF11D858D8A
:1003500090E008958FEF9FEF0895FC01918D228D1D
:10036000892F90E0805C9F4F821B91098F739927A2
:10037000089584E691E00E94AD0121E0892B09F403
:1003800020E0822F089580E090E0892B29F00E94E0
:10039000B90181110C9400000895FC01A48DA80FEF
:1003A000B92FB11DA35ABF4F2C91848D90E00196B7
:1003B0008F739927848FA689B7892C93A089B189D7
:1003C0008C91837080648C93938D848D981306C078
:1003D0000288F389E02D80818F7D80830895EF92DC
:1003E000FF920F931F93CF93DF93EC0181E0888FEF
:1003F0009B8D8C8D98131AC0E889F989808185FFBF
:1004000015C09FB7F894EE89FF896083E889F98960
:1004100080818370806480839FBF81E090E0DF9162
:10042000CF911F910F91FF90EF900895F62E0B8DB5
:1004300010E00F5F1F4F0F731127E02E8C8D8E1170
:100440000CC00FB607FCFACFE889F989808185FFD7
:10045000F5CFCE010E94CD01F1CFEB8DEC0FFD2F3A
:10046000F11DE35AFF4FF0829FB7F8940B8FEA8992
:10047000FB8980818062CFCFCF93DF93EC01888DA1
:100480008823B9F0AA89BB89E889F9898C9185FD0F
:1004900003C0808186FD0DC00FB607FCF7CF8C919D
:1004A00085FFF2CF808185FFEDCFCE010E94CD0187
:1004B000E9CFDF91CF910895DB014330C8F0FC0113
:1004C000848543E050E0481B510920E0822F90E0F2
:1004D00084179507ECF43C912330B0F48D5E9E4F69
:1004E000FC019081832F892389F0909593230AC082
:1004F0002C91E42FF0E0ED5EFE4F9081822F892356
:10050000909592239C93089590E0ECCF2F5FDECFDF
:1005100080E00895FB019081892F817090FF03C0D6
:100520009E7F90830895892F82709C7FFACF0895D3
:100530008EBD00000DB407FEFDCF8EB508952F923D
:100540003F924F925F926F927F928F929F92AF9263
:10055000BF92CF92DF92EF92FF920F931F93CF93B0
:10056000DF9300D000D0CDB7DEB73C01962E5A0104
:100570001901280160E0FC0180850E94A900892DF5
:100580000E9498028E010F5F1F4F4E01F5E08F0E03
:10059000911C80E00E949802F80181938F01E81578
:1005A000F905B9F72A818981F8E08F9FC0011124EC
:1005B000422F50E065E0559547956A95E1F7840F25
:1005C000951F092E000CAA0BBB0BF50180839183AC
:1005D000A283B383F101108223FF3AC0F501808129
:1005E0009181A281B38132E0880F991FAA1FBB1F9E
:1005F0003A95D1F72370820F911DA11DB11D808303
:100600009183A283B38380819181A281B381BA2F28
:10061000A92F982F88272B81820F911DA11DB11D15
:1006200080839183A283B38380819181A281B381EE
:10063000BA2FA92F982F88272C81820F911DA11DD9
:10064000B11D80839183A283B38381E0F101808314
:1006500080E00E949802982F9F70F701908386FB9C
:10066000882780F9F201808310E000E0F7018081A3
:10067000081770F40830110559F05601A00EB11E8C
:1006800080E00E949802F50180830F5F1F4FEECF3C
:1006900061E0F30180850F900F900F900F90DF9134
:1006A000CF911F910F91FF90EF90DF90CF90BF906F
:1006B000AF909F908F907F906F905F904F903F9002
:1006C0002F900C94A9006F927F928F929F92AF927D
:1006D000BF92CF92DF92EF92FF920F931F93CF932F
:1006E000DF93EC015A014901380160FF23C060E942
:1006F000CE010E949F02F30180818F83F4018081EB
:100700008A83F50180819181A281B3818B839C834F
:10071000AD83BE8380E0DF91CF911F910F91FF9059
:10072000EF90DF90CF90BF90AF909F908F907F9091
:100730006F90089561FF02C064E9DACFF70110827B
:1007400084E0E9CF6F927F928F929F92AF92BF9297
:10075000CF92DF92EF92FF920F931F93CF93DF938D
:1007600000D000D0CDB7DEB74C01162F902F02E499
:10077000613439F004E4613521F000E4613309F0BB
:1007800000E080E4E11001C080E0DC2CD82A913048
:1007900009F047C02C833B839A0144275527822FB9
:1007A00083708860922F990F990F990F907E892BF3
:1007B0008A8375E0369527957A95E1F7298380E558
:1007C00090E00E94A60060E0F40180850E94A900EC
:1007D000802F0E949802CE0101967C013E0195E097
:1007E000690E711CF70181917F010E949802E61445
:1007F000F704C1F78D2D0E949802D12CF12CE12C29
:10080000CE14DF04E1F0F8E0EF16F104C1F0F501D9
:10081000EE0DFF1D80810E9498028FEFE81AF80A02
:10082000EFCFC90133E0969587953A95E1F7898333
:100830002295220F207E2A831C821B82C0CF61E07A
:10084000F40180850E94A90080E590E00E94A60046
:1008500060E0F40180850E94A90082E8113439F03B
:1008600084E8113521F081E8113309F080E00E941D
:10087000980261E0F40180850F900F900F900F9027
:10088000DF91CF911F910F91FF90EF90DF90CF906C
:10089000BF90AF909F908F907F906F900C94A90025
:1008A000DF92EF92FF920F931F93CF93DF9300D0CD
:1008B00000D0CDB7DEB77C01D62E413009F040C064
:1008C0000C831B83890122273327802F8370886044
:1008D000902F990F990F990F907E892B8A8355E05D
:1008E000169507955A95E1F7098380E590E00E94F7
:1008F000A60060E0F70180850E94A90082E00E94C6
:1009000098028D2D0E94980289810E9498028A8106
:100910000E9498028B810E9498028C810E9498020A
:1009200061E0F70180850F900F900F900F90DF919D
:10093000CF911F910F91FF90EF90DF900C94A90041
:10094000C80123E0969587952A95E1F7898302955A
:10095000000F007E0A831C821B82C7CF1F93CF9398
:10096000DF93EC0180E590E00E94A60060E08885BE
:100970000E94A90080EA0E94980280E00E949802EA
:10098000182F61E088850E94A900812FDF91CF9107
:100990001F9108950E94AE04837011F484E00895BD
:1009A00083E008950E94AE04982F9B7A292F30E0AF
:1009B00095959595959590718370982BA90155956E
:1009C00047954470942B3595279535952795287034
:1009D000892F822B0895FF920F931F93CF93DF935C
:1009E000EC01F62E042F122F80E590E00E94A60065
:1009F00060E088850E94A90085E00E9498028F2D02
:100A00000E949802802F0E949802812F0E949802D3
:100A100061E08885DF91CF911F910F91FF900C9439
:100A2000A900662321F0613061F080E0089520E1A3
:100A3000413009F020E040E16CE00E94EB0481E0ED
:100A4000089520E2413009F020E040E2F5CF462F42
:100A50004C7121F020E06CE20C94EB0408954F926D
:100A60005F926F927F92AF92BF92CF92EF920F936D
:100A70001F93CF93DF93ECEFE60FED3010F5F0E02E
:100A8000E050FF4F10811123E1F029013A01462F78
:100A9000EC0120E06CE20E94EB04A3019201612FC3
:100AA000CE010E94A20380E0DF91CF911F910F91B0
:100AB000EF90CF90BF90AF907F906F905F904F90EE
:100AC000089582E0F1CF0F931F93CF93DF93EC0152
:100AD0008B010E94AE048475F8011082843591F177
:100AE0009C8563E070E0691B710990E0292F30E07C
:100AF000261737073CF54FEF933020F4F901E05FFC
:100B0000FE4F40814823E1F480E5933020F4F90161
:100B1000E35FFE4F80818F5FF801808340E0933078
:100B200020F42D5E3E4FF901408120E06CE2CE01C1
:100B30000E94EB0480E0DF91CF911F910F91089507
:100B40009F5FD4CF82E0F7CF4F925F926F927F92F8
:100B50008F929F92AF92BF92CF92DF92EF920F93BC
:100B60001F93CF93DF931F92CDB7DEB74C012A01BD
:100B70003B01122F82E08A15C8F11982C4010E943C
:100B8000AE042A2D30E0F901E05FFE4F9081892309
:100B900091F082E00F90DF91CF911F910F91EF9034
:100BA000DF90CF90BF90AF909F908F907F906F908D
:100BB0005F904F900895F901E35FFE4F80818F5F52
:100BC0008983F901ED5EFE4F20E040816CE2C401B3
:100BD0000E94EB045601CE2CE02E012FA3019201BE
:100BE0006981C4010E94A20380E0D4CFBE016F5F7F
:100BF0007F4FC4010E946305882361F3CACF20E0C0
:100C0000611120E440E46BE20C94EB040F931F931A
:100C1000CF93DF93EC01062F142F80E590E00E9424
:100C2000A60060E088850E94A90082E00E949802E8
:100C3000802F0E949802812F0E94980261E088858F
:100C4000DF91CF911F910F910C94A9001F93CF9327
:100C5000DF93EC01162F80E590E00E94A60060E093
:100C600088850E94A90083E00E949802812F0E943B
:100C7000980280E00E949802182F61E088850E9407
:100C8000A900812FDF91CF911F9108956230D1F09B
:100C900030F4662351F0613071F080E008956330E4
:100CA000C1F06430D1F76DE007C06CE00E94260609
:100CB0008295817008956CE00E94260685FB882746
:100CC00080F908956DE00E94260683FB882780F94D
:100CD00008956DE0EBCFCF93DF93EB016DE20E94BF
:100CE0002606209709F08883887F09F085E0DF9148
:100CF000CF9108952F923F924F925F926F927F9281
:100D00008F929F92AF92BF92CF92DF92EF92FF921B
:100D10000F931F93CF93DF931F92CDB7DEB74C0194
:100D20002A013B01222E302EFA2CFC0143825482F0
:100D3000658276822283078310E000E093E2A92E89
:100D4000B12CBE016F5F7F4FC4010E9463050F5F2E
:100D50001F4F823049F40233110511F486E014C0AC
:100D6000C5010197F1F7EDCF02331105B9F3560133
:100D7000CE2CE32C022DA30192016981C4010E94B3
:100D8000A203F11026C080E00F90DF91CF911F9158
:100D90000F91FF90EF90DF90CF90BF90AF909F901A
:100DA0008F907F906F905F904F903F902F9008951D
:100DB000C7010197F1F70F5F1F4F69816150C401AF
:100DC0000E94260683FF0BC00233110589F787E0D6
:100DD000DBCF10E000E083E2E82EF12CECCF023311
:100DE000110589F6F4CF1F93CF93DF93EC01162FF3
:100DF0006BE20E942606482F112341F04C616BE202
:100E0000CE01DF91CF911F910C940606437EF7CF60
:100E1000CF92DF92EF92FF921F93CF93DF93EC017B
:100E2000162F8FB7F894C0905C01D0905D01E090D0
:100E30005E01F0905F018FBF212F40EE6FE0CE0189
:100E40000E94EB046EE0CE010E942606807E1817F9
:100E5000E9F02FB7F89480915C0190915D01A09129
:100E60005E01B0915F012FBF8C199D09AE09BF09CA
:100E7000893C9105A105B105F8F281E0DF91CF91A0
:100E80001F91FF90EF90DF90CF90089580E0F6CF14
:100E90000F931F93CF93DF93EC01162FE881F98115
:100EA0000488F589E02D0995803221F5103211F181
:100EB0006BE2CE010E942606082F007486FD06C054
:100EC00020E440E46BE2CE010E94EB0420E440E425
:100ED0006CE2CE010E94EB0460E6CE010E9408079E
:100EE000811116C0011106C020E040E46BE2CE0182
:100EF0000E94EB0420E040E46CE2CE010E94EB048F
:100F0000612FCE01DF91CF911F910F910C940807B3
:100F100081E0DF91CF911F910F9108951F93CF939F
:100F2000DF93EC01142F6230D9F130F46623A9F07D
:100F3000613049F110E01FC0633009F44FC06430E4
:100F4000C9F760E80E94480781112FC0113009F4E9
:100F500053C0133089F520E050C0413089F020F0B3
:100F6000423041F724E00DC020E044E06CE0CE01C7
:100F70000E94EB0411E0812FDF91CF911F91089522
:100F800025E045E0F3CF413041F020F0423091F6CA
:100F900028E004C020E048E0E9CF2AE04AE0E6CFBC
:100FA00060E80E944807882319F00E941A01C2CF06
:100FB000113021F0133081F010E007C021E041E052
:100FC0006DE0CE010E94EB0411E06B85CE010E9422
:100FD0004807882381F2E9CF20E0F1CF60E80E9442
:100FE00048078111E2CF113021F0133029F720E0BA
:100FF00001C022E042E0E4CF24E044E0E1CF8F9260
:101000009F92AF92BF92EF92FF920F931F93CF9355
:10101000DF93EC01F62EE42E480159010E941A01DB
:1010200060E8CE010E944807182F882371F00E94C3
:101030001A01812FDF91CF911F910F91FF90EF90B7
:10104000BF90AF909F908F90089582E0F81639F18D
:101050008F1558F0FF20B1F081E0F816D9F06B85BC
:10106000CE010E944807182FE2CF84E0F81609F15C
:10107000F816D0F085E0F812F2CF950184014E2DDC
:1010800068E104C0950184014E2D60E0CE010E940C
:101090005004E5CF950184014E2D64E0F7CF950112
:1010A00084014E2D68E0F2CF950184014E2D60E160
:1010B000EDCF950184014E2D64E1E8CF8F929F9290
:1010C000AF92BF92EF92FF920F931F93CF93DF9354
:1010D000EC01E62EF42E480159010E941A0160E845
:1010E000CE010E944807182F882371F00E941A0130
:1010F000812FDF91CF911F910F91FF90EF90BF90C3
:10110000AF909F908F900895E1100DC095018401DC
:101110004F2D60E2CE010E9450046B85CE010E94EB
:101120004807182FE3CF81E0E812F7CF950184013B
:101130004F2D64E2EFCFEF92FF921F93CF93DF9397
:101140007C01C42FD22F1FB7F89480915A018111CE
:1011500024C0EAE9F0E08491EEEAF0E09491E82F0F
:10116000F0E0EE0FFF1FEA57FF4FA591B491EC910D
:10117000E92321F461E08AE00E94A9008AE00E944C
:1011800087008CB580618CBD8CB580648CBD8DE092
:101190000E9487008BE00E94870080915A018F5F38
:1011A00080935A011FBF80E590E00E94A60060E096
:1011B000D70118968C910E94A90080EC0E94980299
:1011C00061E0F70180850E94A9000E941A0160E891
:1011D000C7010E944807182F882361F00E941A0156
:1011E00081E0111101C080E0DF91CF911F91FF904C
:1011F000EF9008950E941A01D23009F4A3C0D330B1
:1012000009F4EAC0D13051F7C150C33138F7EC2F9F
:10121000F0E0E35FF64F0C945C0C2B0A360A2009D1
:10122000390A240927092B097A097D0981098409CA
:1012300087098A098D099109950998099B099F09D0
:10124000C7E8DFEF1FE00AC0C5E8D1EFFBCFC7E07A
:10125000DEEB19E003C0C7E8DFEF17E0412F6AE2D9
:10126000C7010E9406064D2F69E2C7010E940606CB
:101270004C2F68E2C7010E9406060E941A01C0E3D3
:1012800040E06C2FC7010E94060660E16C0F40E051
:10129000C7010E94060660E26C0F40E0C7010E9491
:1012A0000606CF5FCE3361F740E060E6C7010E94DB
:1012B000060640E060E7C7010E94060643E06BE2D5
:1012C000C7010E94060624E044E660E6C7010E94CA
:1012D000EB0420E040E660E7C7010E94EB04D70181
:1012E000ED91FC910288F389E02D60E0C70109953A
:1012F000182F74CFC7E8DAEFB0CFC7E8DFEF13E0FD
:10130000ADCFC7E0DEEBFBCFC7E0DDEAF8CFC7E843
:10131000DAEFF5CFC6E8D0EFF2CFC7E8DAEF11E0A9
:101320009DCFC5E8D1EF11E499CFC6E8D0EF96CFB5
:10133000C4E0D0EA93CFC2E0D2E910E48FCFC2E894
:10134000D0ED8CCFC350C13108F048CFEC2FF0E086
:10135000E455F64F0C945C0C2F0A3C0ABD09C109F8
:10136000C509C809CC09D009D309D709DA09DD09AB
:10137000E009E309E609EE08E909C3E0DCEA1BE05D
:101380006DCFC2E0D4EA1CE069CFC3E0D4EA61CFFC
:10139000C4E0D6EB15E062CFC3E0D4EA14E05ECF40
:1013A000C3E0D5EBACCFC4E0DEEB12E057CFC4E036
:1013B000D6EBFBCFC6E0DFEBB2CFC3E0D4EAAFCFD2
:1013C000C6E0DFEB4BCFC2E0DBE948CFC1E0D2E9BA
:1013D00045CFC1E0D8E842CFC150C33108F0FECEBE
:1013E000EC2FF0E0EA50F64F0C945C0C320A3F0A06
:1013F000090AEE080C0AEE080F0A120A150AEE088E
:10140000EE08170A1A0A1D0A200A230AEE08260AFD
:10141000290AC7E0DFEB21CFC4E0D4EA1ECFC7E042
:10142000DFEB6DCFC6E0D4EB6ACFC7E0C4CFC6E038
:10143000D4EB75CFC5E0D1EB72CFC6E0D4EB0ECFC5
:10144000C5E0D1EB0BCFC2E0D0E908CFC1E0D0E8D6
:1014500005CFC0E0FCCFC7E8DFEF1FE3FFCEC5E05C
:10146000DFEB91CFC7E0DFEB1FE1F8CEC7E8DFEF9E
:10147000FBCFC7E0DAEBE6CEC4E0D6EB80CFC7E027
:10148000DFEBE0CE603211F0FC0163870C9448077B
:10149000CF93DF93EC01E881F9810488F589E02D91
:1014A00009956B85681729F0CE01DF91CF910C94D7
:1014B000480780E0DF91CF910895CF93DF93EC014F
:1014C000E881F9810488F589E02D0995803231F0B1
:1014D00060E2CE01DF91CF910C94480780E0DF916C
:1014E000CF9108956EE00E942606807E0895AF9207
:1014F000BF92CF92DF92EF92FF920F931F93CF9301
:10150000DF93EC017B016A01E881F981A28CB38C45
:1015100000A4F1A5E02D09958E01095F1F4F9E01E2
:101520002E5F3F4FAE014D5F5F4F682FCE01F5013B
:101530000995DF91CF911F910F91FF90EF90DF9070
:10154000CF90BF90AF9008958F929F92AF92BF922D
:10155000CF92DF92EF92FF920F931F93CF93DF937F
:10156000EC014B017A016901E881F981A28CB38C0D
:1015700000A4F1A5E02D09958E01095F1F4F9E0182
:101580002E5F3F4FA401682FCE01F5010995DF9131
:10159000CF911F910F91FF90EF90DF90CF90BF9070
:1015A000AF909F908F90089582E00895633008F087
:1015B00062E0FC0164870895CF93DF93FC01019002
:1015C0000020E9F73197AF01481B590BBC0184E6B5
:1015D00091E00E944F01EC0142E050E068E271E0CE
:1015E00084E691E00E944F018C0F9D1FDF91CF9107
:1015F00008950E94620C1F920F920FB60F92112451
:101600002F933F938F939F93AF93BF9380915C01F0
:1016100090915D01A0915E01B0915F0130915B01FD
:1016200023E0230F2D3758F50196A11DB11D2093FE
:101630005B0180935C0190935D01A0935E01B09388
:101640005F018091600190916101A0916201B09170
:1016500063010196A11DB11D80936001909361010A
:10166000A0936201B0936301BF91AF919F918F915D
:101670003F912F910F900FBE0F901F90189526E865
:10168000230F0296A11DB11DD2CF1F920F920FB64C
:101690000F9211242F933F934F935F936F937F93F8
:1016A0008F939F93AF93BF93EF93FF9384E691E063
:1016B0000E94CD01FF91EF91BF91AF919F918F91CA
:1016C0007F916F915F914F913F912F910F900FBE3E
:1016D0000F901F9018951F920F920FB60F92112422
:1016E0002F938F939F93EF93FF93E0917401F09169
:1016F00075018081E0917A01F0917B0182FD1BC030
:10170000908180917D018F5F8F7320917E01821780
:1017100041F0E0917D01F0E0EC59FE4F958F809310
:101720007D01FF91EF919F918F912F910F900FBEAF
:101730000F901F9018958081F4CF789484B58260C3
:1017400084BD84B5816084BD85B5826085BD85B565
:10175000816085BD80916E00816080936E001092E3
:10176000810080918100826080938100809181005E
:1017700081608093810080918000816080938000EF
:101780008091B10084608093B1008091B00081604D
:101790008093B00080917A00846080937A00809179
:1017A0007A00826080937A0080917A0081608093D1
:1017B0007A0080917A00806880937A001092C1004C
:1017C000E0917401F091750182E08083E0917001F5
:1017D000F09171011082E0917201F091730180E14A
:1017E000808310927C01E0917801F091790186E08C
:1017F0008083E0917601F091770180818061808320
:10180000E0917601F0917701808188608083E0919A
:101810007601F0917701808180688083E091760184
:10182000F091770180818F7D80838AE00E9487001C
:1018300061E08AE00E94A9008BE291E00E94DC0A4C
:10184000C0E0D0E085E591E00E94DC0A2097D1F36A
:101850000E94B9018823B1F30E940000F3CFE4E6AF
:10186000F1E01382128288EE93E0A0E0B0E084837E
:101870009583A683B7838AE191E09183808385EC89
:1018800090E09587848784EC90E09787868780EC4A
:1018900090E0918B808B81EC90E0938B828B82EC3B
:1018A00090E0958B848B86EC90E0978B868B118EE5
:1018B000128E138E148E0895EE0FFF1F0590F49173
:1018C000E02D099481E090E0F8940C94670CF89472
:0218D000FFCF48
:1018D2003100000041000000000000005130405083
:1018E20004104004081000000000EF014F017C01C9
:1018F2003C02AD018B019F010D0A0043414E204283
:101902007573206661696C656420746F20696E6905
:101912007469616C697A652E205265747279696E98
:0A192200672E2E2E0054657374002A
:00000001FF
